:020000044000BA
:10000000130101FF232611002324810013040101A1
:10001000370780D023A4E18613054001EF00807DDF
:10002000930705001387070023ACE18683A7818728
:1000300063960700930710006F004010370780D0C9
:100040001307470023A6E18413050001EF00807A1F
:10005000930705001387070023A8E18483A7018580
:1000600063960700930710006F00400D370780D09C
:100070001307870023A6E18613054001EF00807770
:10008000930705001387070023AAE18683A741870A
:1000900063960700930710006F00400A370780D06F
:1000A0001307C70023A2E18613054001EF00807407
:1000B000930705001387070023ACE18483A781859C
:1000C00063960700930710006F004007370780D042
:1000D0001307470123AAE18413054000EF00807154
:1000E000930705001387070023AEE18683A7C18726
:1000F00063960700930710006F004004370780D015
:100100001307870123A8E18613054000EF00806EE6
:10011000930705001387070023AEE18483A7C185F9
:1001200063960700930710006F004001370780D0E7
:100130001307C70123A0E18693070000138507007A
:100140008320C100032481001301010167800000A6
:10015000130101FF23261100232481001304010150
:1001600083A7818713850700EF00006A83A70185B5
:1001700013850700EF00406983A7418713850700B7
:10018000EF00806883A7818513850700EF00C067B3
:1001900083A7C18713850700EF00006783A7C18588
:1001A00013850700EF004066130000008320C100A4
:1001B000032481001301010167800000130101FE87
:1001C000232E8100232C9100130401022326A4FE78
:1001D0002324B4FE2322C4FE2320D4FE930407006C
:1001E00083A781870327C4FE23A0E70083A7818715
:1001F000032784FE23A2E70083A78187032744FE09
:1002000023A4E70083A78187032704FE23A6E70032
:1002100083A784001397670183A744009397B700CF
:10022000B366F70003A7040083A7818733E7E600DE
:1002300023A8E70003A7818783A7818603250700FA
:1002400083254700032687008326C700032707016D
:1002500023A0A70023A2B70023A4C70023A6D7008A
:1002600023A8E70093070000138507000324C101BA
:10027000832481011301010267800000130101FE44
:10028000232E8100232C9100130401022326A4FEB7
:100290002324B4FE2322C4FE9384060083A7018591
:1002A0000327C4FE23A0E70083A70185032784FE5C
:1002B00023A2E70083A70185032744FE23A4E700C8
:1002C00083A784001397670183A744009397B7001F
:1002D000B366F70003A7040083A7018533E7E600B0
:1002E00023A6E70003A7018583A7C1848325070010
:1002F00003264700832687000327C70023A0B700F3
:1003000023A2C70023A4D70023A6E7009307000079
:10031000138507000324C101832481011301010215
:1003200067800000130101FE232E8100232C910021
:10033000130401022326A4FE2324B4FE2322C4FEB8
:100340002320D4FE9304070083A741870327C4FE1C
:1003500023A0E70083A74187032784FE23A2E700A9
:1003600083A74187032744FE23A4E70083A741878F
:10037000032704FE23A6E70083A7840013976701E1
:1003800083A744009397B700B366F70003A7040060
:1003900083A7818733E7E60023A8E70003A7418707
:1003A00083A7C1860325070083254700032687000E
:1003B0008326C7000327070123A0A70023A2B700B5
:1003C00023A4C70023A6D70023A8E70093070000B3
:1003D000138507000324C101832481011301010255
:1003E00067800000130101FE232E8100232C910061
:1003F000130401022326A4FE2324B4FE2322C4FEF8
:100400002320D4FE9304070083A781850327C4FE1D
:1004100023A0E70083A78185032784FE23A2E700AA
:1004200083A78185032744FE23A4E70083A7818552
:10043000032704FE23A6E70083A784001397670120
:1004400083A744009397B700B366F70003A704009F
:1004500083A7818533E7E60023A8E70003A781850A
:1004600083A74186032507008325470003268700CD
:100470008326C7000327070123A0A70023A2B700F4
:1004800023A4C70023A6D70023A8E7001300000079
:10049000138507000324C101832481011301010294
:1004A00067800000130101FE232E81001304010266
:1004B0002326A4FE2324B4FE93070600A303F4FE20
:1004C00093073006138507000324C10113010102BD
:1004D00067800000130101FE232E81001304010236
:1004E0002326A4FE2324B4FE2322C4FE2320D4FE0C
:1004F00093073006138507000324C101130101028D
:1005000067800000130101FF23268100130401010D
:1005100083A701861307100023A0E7001300000043
:100520000324C1001301010167800000130101FED3
:10053000232E8100130401022326A4FE8327C4FE78
:1005400023A007008327C4FE23A407001300000094
:100550000324C1011301010267800000130101FEA1
:10056000232E8100130401022326A4FE13000000A1
:100570000324C1011301010267800000130101FE81
:10058000232E8100130401022326A4FE8327C4FE28
:1005900023A207008327C4FE1307F0FF23A0E70070
:1005A000130000000324C101130101026780000051
:1005B000130101FE232E8100130401022326A4FE51
:1005C0008327C4FE83A7470093D7070193F7F70F4C
:1005D000138507000324C101130101026780000095
:1005E000130101FE232E8100130401022326A4FE21
:1005F0008327C4FE83A7470093D78701138507008D
:100600000324C1011301010267800000130101FEF0
:10061000232E1100232C8100130401022326A4FEA3
:100620002324B4FE130000000325C4FEEFF05FF89E
:1006300093070500E38A07FE8327C4FE032784FE91
:1006400023A0E700130000008320C10103248101DF
:100650001301010267800000130101FE232E8100B7
:10066000130401022326A4FE2324B4FE832784FE60
:1006700003A7C7008327C4FE23A4E700832784FEC3
:1006800083A707001387F7FF832784FE83A747000C
:10069000939787003367F700832784FE83A787003B
:1006A000939707013367F7008327C4FE23A6E7006B
:1006B000130000000324C101130101026780000040
:1006C000130101FE232E8100130401022326A4FE40
:1006D0008327C4FE83A7070093F72700B337F000F2
:1006E00093F7F70F138507000324C10113010102DB
:1006F00067800000130101FE232E81001304010214
:100700002326A4FE8327C4FE1307100023A0E700BE
:10071000130000000324C1011301010267800000DF
:10072000130101FE232E1100232C8100130401026A
:100730002326A4FE8327C4FE23A007001300000085
:100740000325C4FEEFF0DFF793070500E39A07FEE9
:10075000130000008320C101032481011301010261
:1007600067800000130101FC232E1102232C81025B
:1007700013040104EFF0DF88232204FE232404FE87
:10078000232604FE9307E07F232CF4FC9307E07FED
:10079000232EF4FC9307F03F2320F4FE832744FE2E
:1007A0002320F4FC832784FE2322F4FC8327C4FE49
:1007B0002324F4FC930704FC138707009306000F1F
:1007C000130600149305000013050000EFF09FC10D
:1007D000EFF05FD36FF09FFC130101FF2326810030
:1007E00013040101130000000324C10013010101DF
:1007F00067800000971700009387C757930505008F
:1008000003A507006F0080019717000093878756A4
:100810009305050003A507006F005001130101FDBA
:100820002326110223248102232291022320210363
:10083000232E3101232C4101232A51012328610158
:100840002326710123248101232291019387B5007E
:10085000130760016376F70493F487FF63D40404FD
:100860009307C0002320F500130500008320C10278
:100870000324810283244102032901028329C10147
:10088000032A8101832A4101032B0101832BC1002B
:10089000032C8100832C41001301010367800000B9
:1008A00093040001E3EEB4FA13090500EF000061C0
:1008B0009307701F97190000938949C863EA97044A
:1008C000138784003387E90003244700930687FFDA
:1008D00093D734006318D4000324C70093872700FC
:1008E00063008708832744000327C400832684000D
:1008F00093F7C7FFB307F40023A6E6002324D7002D
:1009000003A747001367170023A2E7006F00C00A80
:1009100013D794009307F003630A0700930740007E
:1009200063E4E70A93D7640093878703138717006C
:10093000131737003387E90003244700930587FF27
:100940001305F000630CB400032744001377C7FFBE
:10095000330697406352C50C9387F7FF93871700C0
:1009600003A40901971500009385C5BD6302B41463
:10097000032744009306F0001377C7FF3306974020
:1009800063DEC60A93E714002322F400B306940042
:100990009717000023AED7BA9717000023A8D7BA3D
:1009A0009367160023A6B60023A4B60023A2F60080
:1009B0003307E4002320C70013050900EF0040506F
:1009C000130584006FF09FEA9307400163E6E70098
:1009D0009307B7056FF09FF59307400563E8E700BD
:1009E00093D7C4009387E7066FF05FF49307401531
:1009F00063E8E70093D7F400938777076FF01FF35E
:100A0000930640559307E007E3E2E6F293D724010B
:100A10009387C7076FF09FF18326C400634C0600DD
:100A20008327840023A6D70023A4F600B307E4009D
:100A30006FF01FED138406006FF0DFF097160000D3
:100A400023A8B6B09716000023A2B6B0634C0600E8
:100A50003307E4008327470093E717002322F700BA
:100A60006FF09FF59306F01F03A8490063E4E618B2
:100A7000135737001356274093061000130717002B
:100A8000B396C600131737003387E900B3E60601B3
:100A9000171600002326D6AA83260700130687FF11
:100AA0002326C4002324D4002320870023A6860005
:100AB00013D72740130310003313E30003A74900A3
:100AC000636C6706B3766700639C060093F7C7FF05
:100AD00013131300B376670093874700E38A06FE7B
:100AE000130EF00093963700B386D90013880600E2
:100AF000138507000324C8006310041D13051500A7
:100B00001377350013088800E31607FE13F7370044
:100B10006316072203A749009347F3FFB377F70053
:100B200017170000232EF7A003A749001313130083
:100B3000636467006318032283AB890003A44B003E
:100B4000937AC4FF63E89A0033879A409307F000D2
:100B500063C8E7349387C181171700001307072183
:100B600003A40700832607009307F0FF338C5B0183
:100B700033848400130A0700639AF61E13040401E9
:100B80009305040013050900EF00C0339307F0FF3D
:100B9000130B0500630CF5286374850163983B29EA
:100BA000938C418203A70C003307E40023A2E18267
:100BB000631A6C1D93174C016396071C83A7890069
:100BC00033848A001364140023A287001387818171
:100BD00083A70C00032707006374F70023ACF180A0
:100BE00013874181032707006372F72423AAF1804A
:100BF0006F00C023135697009306400063E8C604B5
:100C000093566700938686031386160013163600E4
:100C10003386C900130586FF032606006314C50842
:100C20001307100093D62640B316D700B3E606018B
:100C3000171700002326D7902326A4002324C400DE
:100C400023248500232686006FF09FE6930640014B
:100C500063E6C6009306B6056FF01FFB93064005DA
:100C600063E8C6009356C7009386E6066FF0DFF987
:100C70009306401563E8C6009356F70093867607FF
:100C80006FF09FF8130540559306E007E36EC5F635
:100C9000935627019386C6076FF01FF70326860039
:100CA0006308C5008326460093F6C6FFE368D7FEB7
:100CB0000325C6006FF05FF8032744000326C40035
:100CC0001377C7FFB308974063541E0593E71400DA
:100CD0002322F40083278400B30694003307E40042
:100CE00023A6C7002324F6009717000023A2D78667
:100CF0009717000023ACD78493E7180023A6B6000B
:100D000023A4B60023A2F600232017016FF0DFCA48
:100D100063C208023307E4008327470093E7170004
:100D20002322F7008327840023A6C7002324F6008C
:100D30006FF09FC8130406006FF01FDC938686FFD8
:100D400003A786009387F7FFE302D7DC6FF0DFDDB0
:100D50009387470013131300B3766700E38A06FEF8
:100D60006FF05FD8930705006FF01FFF3717000083
:100D70001307F7003304E400B7F7FFFF3374F40000
:100D80006FF01FE083260A009307F0FF6394F60CD0
:100D90009717000023AC67FD137C7B0093070000CE
:100DA00063080C0093078000B3878741330BFB0077
:100DB00037150000338AA70033048B001305F5FFB5
:100DC000B377A400330AFA40337AAA0093050A00E5
:100DD00013050900EF00000F9307F0FF631CF500F7
:100DE0001305040063060C0013058CFF3305A400F3
:100DF000130A000083A70C0033056541B387470140
:100E0000330A450123A2F182136A1A0097070000F2
:100E100023AA677323224B01E38A3BDB1307F0000D
:100E200063625705930710002322FB0083A7890004
:100E300083A7470093F7C7FF3387974063E6970080
:100E40009307F00063CEE70413050900EF004007A5
:100E50006FF09FA1B3078B41B387E70023A2F18214
:100E60006FF09FF383A74B0013844AFF137484FF32
:100E700093F71700B3E7870023A2FB009306500007
:100E8000B3878B0023A2D70023A4D700E37087D4B5
:100E900093858B0013050900EF0040196FF01FD3F5
:100EA00003A4890093E714002322F400B3079400FD
:100EB0009706000023A8F6686FF0DFA467800000A3
:100EC00067800000130101FF232481001304050043
:100ED0001385050023A0018823261100EF0000528E
:100EE0009307F0FF631AF5009387018883A7070033
:100EF000638407002320F4008320C10003248100C1
:100F00001301010167800000130101FE232C810001
:100F1000232A91002328210123263101138405006F
:100F2000232E110013090500970900009389096118
:100F3000EFF0DFF883A789003717000083A447008C
:100F40009307F7FE3384874093F4C4FF330494007F
:100F50001354C4001304F4FF1314C4006356E402D2
:100F600013050900EFF0DFF5130500008320C10130
:100F70000324810183244101032901018329C10044
:100F800013010102678000009305000013050900AA
:100F9000EFF05FF383A78900B3879700E312F5FCB6
:100FA000B305804013050900EFF0DFF19307F0FF70
:100FB0006312F5049305000013050900EFF09FF09C
:100FC00003A789009306F000B307E540E3DAF6F8DB
:100FD00097160000938686D983A6060093E717002C
:100FE0002322F7003305D5409716000023A2A6DA86
:100FF0006FF01FF783A78900B384844093E4140043
:1010000023A2970097170000938787D883A707002C
:1010100013050900338487409717000023AA87D659
:10102000EFF01FEA130510006FF05FF4638A0526E6
:10103000130101FF232481002322910013040500E2
:101040009384050023261100EFF05FE783A5C4FF1A
:10105000938684FF170500001305454E93F7E5FFBF
:101060003386F600032746000328850093F5150014
:101070001377C7FF6318C806B387E70063900502BC
:1010800003A784FFB386E64003A68600B387E70084
:1010900003A7C6002326E6002324C70013E7170092
:1010A00023A2E60017070000232ED74817170000D9
:1010B000130707CC0327070063EAE7009387C18182
:1010C00083A5070013050400EFF01FE413050400D7
:1010D000032481008320C100832441001301010106
:1010E0006FF01FDE2322E60013080000639605025E
:1010F00083A584FF970800009388C844B386B64050
:10110000B387B70083A58600638C150B83A8C60040
:1011100023A6150123A4B800B305E60083A5450066
:1011200093F51500639C0502B387E700032786004B
:10113000631C0808970500009385C5406316B7082F
:10114000170600002326D640170600002320D640AD
:1011500023A6E60023A4E6001308100013E71700F7
:1011600023A2E6003387F6002320F700E31008F6F9
:101170001307F01F6362F70693D7370013D6274093
:10118000130710003317C700032645009387170085
:10119000939737003367C700B307F50017060000C1
:1011A0002320E63A03A70700138687FF23A6C6007D
:1011B00023A4E60023A0D7002326D7006FF01FF159
:1011C000130810006FF05FF50326C6002326C70042
:1011D0002324E6006FF09FF813D697001307400012
:1011E000636AC70413D76700130787031306170042
:1011F000131636003306C500930586FF0326060046
:101200006396C50893071000135727403397E700EC
:10121000832745003367F7009707000023A2E732D2
:1012200023A6B60023A4C60023A4D5002326D600F7
:101230006FF0DFE9130740016366C7001307B605C7
:101240006FF0DFFA130740056368C70013D7C700C4
:101250001307E7066FF09FF9130740156368C7008F
:1012600013D7F700130777076FF05FF89305405522
:101270001307E007E3ECC5F613D727011307C707E9
:101280006FF0DFF6032686006388C500032746005B
:101290001377C7FFE3E8E7FE8325C6006FF05FF82A
:1012A00067800000130101FF2324810013840500DF
:1012B00083A5050023229100232611009304050035
:1012C00063840500EFF01FFE9305040003248100F2
:1012D0008320C10013850400832441001301010110
:1012E0006FF0DFD4971700009387C7A883A7070084
:1012F0006384A7108327C504130101FE232C8100FA
:10130000232A910023282101232E110023263101B5
:10131000130405009304000013090008639A0706EC
:10132000832504046386050013050400EFF01FD035
:10133000832584149304C41463900508832544050D
:101340006398050883278403638A07088327C403F7
:1013500013050400E78007008325042E6380050839
:1013600013050400032481018320C101832441016A
:10137000032901018329C100130101026FF09FF2CB
:10138000B385950083A50500639E05009384440002
:101390008325C404E39624FF13050400EFF01FC95E
:1013A0006FF01FF883A9050013050400EFF01FC8B4
:1013B000938509006FF05FFDE38295F803A90500AE
:1013C00013050400EFF09FC6930509006FF0DFFEE0
:1013D00013050400EFF09FC56FF0DFF68320C10115
:1013E0000324810183244101032901018329C100D0
:1013F000130101026780000067800000130101FFF4
:10140000232291009384018283A7040023202101D9
:10141000232611002324810013090500639A070481
:10142000130500009305000013060000930600005A
:10143000130700009308600D7300000013040500FB
:1014400063560502EF0040083304804023208500E6
:101450001305F0FF8320C100032481008324410091
:1014600003290100130101016780000023A0A1826C
:1014700003A5040093050000130600003305A9002E
:101480009306000013070000930700009308600D07
:101490007300000013040500635A05003304804004
:1014A000EF008002232085001304F0FF83A70400CF
:1014B0001305F0FF3309F900E31E24F923A081820C
:1014C000138507006FF01FF9971700009387878A2D
:0814D00003A50700678000007E
:1014D800600000002003000070000000F00200001F
:1014E800020000000D0200000C000000EC010000EA
:1014F8000800000046000000100000004000000046
:101508000200000030000000080000002800000071
:1015180008000000B800000010000000B000000043
:101528000200000082000000060000007E000000AB
:101538000000000000000000381500403815004089
:10154800401500404015004048150040481500402F
:1015580050150040501500405815004058150040DF
:10156800601500406015004068150040681500408F
:10157800701500407015004078150040781500403F
:1015880080150040801500408815004088150040EF
:10159800901500409015004098150040981500409F
:1015A800A0150040A0150040A8150040A81500404F
:1015B800B0150040B0150040B8150040B8150040FF
:1015C800C0150040C0150040C8150040C8150040AF
:1015D800D0150040D0150040D8150040D81500405F
:1015E800E0150040E0150040E8150040E81500400F
:1015F800F0150040F0150040F8150040F8150040BF
:10160800001600400016004008160040081600406A
:10161800101600401016004018160040181600401A
:1016280020160040201600402816004028160040CA
:10163800301600403016004038160040381600407A
:10164800401600404016004048160040481600402A
:1016580050160040501600405816004058160040DA
:10166800601600406016004068160040681600408A
:10167800701600407016004078160040781600403A
:1016880080160040801600408816004088160040EA
:10169800901600409016004098160040981600409A
:1016A800A0160040A0160040A8160040A81600404A
:1016B800B0160040B0160040B8160040B8160040FA
:1016C800C0160040C0160040C8160040C8160040AA
:1016D800D0160040D0160040D8160040D81600405A
:1016E800E0160040E0160040E8160040E81600400A
:1016F800F0160040F0160040F8160040F8160040BA
:101708000017004000170040081700400817004065
:101718001017004010170040181700401817004015
:1017280020170040201700402817004028170040C5
:101738003017004030170040381700403817004075
:101748004017004040170040481700404817004025
:1017580050170040501700405817004058170040D5
:101768006017004060170040681700406817004085
:101778007017004070170040781700407817004035
:1017880080170040801700408817004088170040E5
:101798009017004090170040981700409817004095
:1017A800A0170040A0170040A8170040A817004045
:1017B800B0170040B0170040B8170040B8170040F5
:1017C800C0170040C0170040C8170040C8170040A5
:1017D800D0170040D0170040D8170040D817004055
:1017E800E0170040E0170040E8170040E817004005
:1017F800F0170040F0170040F8170040F8170040B5
:101808000018004000180040081800400818004060
:101818001018004010180040181800401818004010
:1018280020180040201800402818004028180040C0
:101838003018004030180040381800403818004070
:101848004018004040180040481800404818004020
:1018580050180040501800405818004058180040D0
:101868006018004060180040681800406818004080
:101878007018004070180040781800407818004030
:1018880080180040801800408818004088180040E0
:101898009018004090180040981800409818004090
:1018A800A0180040A0180040A8180040A818004040
:1018B800B0180040B0180040B8180040B8180040F0
:1018C800C0180040C0180040C8180040C8180040A0
:1018D800D0180040D0180040D8180040D818004050
:1018E800E0180040E0180040E8180040E818004000
:1018F800F0180040F0180040F8180040F8180040B0
:10190800001900400019004008190040081900405B
:10191800101900401019004018190040181900400B
:1019280020190040201900402819004028190040BB
:101938003019004030190040000000002C1C004005
:10194800941C0040FC1C0040000000000000000047
:10195800000000000000000000000000000000007F
:10196800000000000000000000000000000000006F
:10197800000000000000000000000000000000005F
:10198800000000000000000000000000000000004F
:10199800000000000000000000000000000000003F
:1019A800000000000000000000000000000000002F
:1019B800000000000000000000000000000000001F
:1019C800000000000000000000000000000000000F
:1019D80000000000000000000000000000000000FF
:1019E80001000000000000000E33CDAB34126DE69C
:1019F800ECDE05000B000000000000000000000005
:101A080000000000000000000000000000000000CE
:101A180000000000000000000000000000000000BE
:101A280000000000000000000000000000000000AE
:101A3800000000000000000000000000000000009E
:101D6800FFFFFFFF000002004019004000000000D4
:041D780040190040CE
:0200000480007A
:100000006F00400B130000001300000013000000FD
:100010001300000013000000130000001300000094
:10002000232E11FE232C51FE232A61FE232871FE6C
:100030002326A1FE2324B1FE2322C1FE2320D1FECC
:10004000232EE1FC232CF1FC232A01FD232811FDA2
:100050002326C1FD2324D1FD2322E1FD2320F1FD30
:10006000130101FC970000C0E78040778320C103A3
:100070008322810303234103832301030325C10258
:100080008325810203264102832601020327C10141
:10009000832781010328410183280101032EC10028
:1000A000832E8100032F4100832F010013010104DF
:1000B00073002030972100C09381414B171100003D
:1000C0001301418913854181938541886308B500F7
:1000D00023200500130545006FF05FFF171500C0D2
:1000E0001305C5451301C1FF971500C0938505454C
:1000F000630EB50083260500130545002320A100EB
:10010000E7800600032501006FF01FFE1301410088
:10011000371500001305058873104530372500009A
:100120001305858073100530970000C0E780C06319
:100130006F00000037150000130505FE0F50057015
:08014000E31C05FE67800000CE
:040000058000000077
:00000001FF
