:020000044000BA
:10000000130101FE232E8100130401022326A4FE06
:100010008327C4FE23A007008327C4FE23A4070070
:10002000130000000324C1011301010267800000D6
:10003000130101FE232E8100130401022326A4FED6
:10004000130000000324C1011301010267800000B6
:10005000130101FE232E8100130401022326A4FEB6
:100060008327C4FE23A207008327C4FE1307F0FFE3
:1000700023A0E700130000000324C10113010102C3
:1000800067800000130101FE232E8100130401028A
:100090002326A4FE8327C4FE83A7470093D7070126
:1000A00093F7F70F138507000324C1011301010221
:1000B00067800000130101FE232E8100130401025A
:1000C0002326A4FE8327C4FE83A7470093D7870176
:1000D000138507000324C10113010102678000009A
:1000E000130101FE232E1100232C810013040102B1
:1000F0002326A4FE2324B4FE130000000325C4FE1F
:10010000EFF05FF893070500E38A07FE8327C4FE3C
:10011000032784FE23A0E700130000008320C10111
:10012000032481011301010267800000130101FE15
:10013000232E8100130401022326A4FE2324B4FEEF
:10014000832784FE03A7C7008327C4FE23A4E700F8
:10015000832784FE83A707001387F7FF832784FE86
:1001600083A74700939787003367F700832784FEB0
:1001700083A78700939707013367F7008327C4FE9F
:1001800023A6E700130000000324C10113010102AC
:1001900067800000130101FE232E81001304010279
:1001A0002326A4FE8327C4FE83A7070093F7270016
:1001B000B337F00093F7F70F138507000324C1014D
:1001C0001301010267800000130101FE232E81004C
:1001D000130401022326A4FE8327C4FE1307100084
:1001E00023A0E700130000000324C1011301010252
:1001F00067800000130101FE232E1100232C8100D3
:10020000130401022326A4FE8327C4FE23A00700B3
:10021000130000000325C4FEEFF0DFF7930705008D
:10022000E39A07FE130000008320C101032481012B
:100230001301010267800000130101FC232E11024B
:10024000232C810213040104930780002326F4FC6D
:10025000232804FC232A04FC93075003232CF4FCDA
:100260009307C4FC93850700370501F0EFF01FECFE
:10027000370503F0EFF01FF8B70703F0370700402A
:10028000032347409306474083A846009306474010
:1002900003A886009306474003A5C600930647407F
:1002A00083A506019306474003A6460193064740EF
:1002B00083A68601130747400327C70123A06704CD
:1002C00023A2170523A4070523A6A70423A8B70480
:1002D00023AAC70423ACD70423AEE704B70703F06F
:1002E000376709001307F7FF23A2E700B70703F0FA
:1002F000370700401307074823A4E700370503F03A
:10030000EFF09FEC231704FEB707004093870748E0
:100310002324F4FE232204FE6F00C009832744FE39
:1003200013970701135707018357E4FEB307F7003C
:100330009397070193D70701939767009397070156
:1003400093D7070193F7077C231FF4FC232004FEB7
:100350006F00C004832704FE9397070193D707011A
:1003600093F7F70113970701135707018357E4FD2C
:10037000B307F7001397070113570701832784FE7C
:100380002390E700832784FE938727002324F4FE2D
:10039000832704FE938717002320F4FE032704FE1F
:1003A0009307F027E3F8E7FA832744FE93871700C3
:1003B0002322F4FE032744FE9307F01DE3F0E7F643
:1003C0008357E4FE938747002317F4FE13050000CC
:1003D00097000040E780C0D69305A000370501F0E4
:1003E000EFF01FD06FF05FF2130101FF23268100B1
:1003F00013040101130000000324C10013010101D3
:040400006780000011
:10040400600000002003000070000000F002000003
:10041400020000000D0200000C000000EC010000CE
:10042400080000004600000010000000400000002A
:100434000200000030000000080000002800000056
:1004440008000000B800000010000000B000000028
:100454000200000082000000060000007E00000090
:040464000000000094
:0200000480007A
:100000006F00400B130000001300000013000000FD
:100010001300000013000000130000001300000094
:10002000232E11FE232C51FE232A61FE232871FE6C
:100030002326A1FE2324B1FE2322C1FE2320D1FECC
:10004000232EE1FC232CF1FC232A01FD232811FDA2
:100050002326C1FD2324D1FD2322E1FD2320F1FD30
:10006000130101FC970000C0E78040388320C103E2
:100070008322810303234103832301030325C10258
:100080008325810203264102832601020327C10141
:10009000832781010328410183280101032EC10028
:1000A000832E8100032F4100832F010013010104DF
:1000B00073002030971100C0938141BB17110000DD
:1000C00013014189170500C01305453A970500C083
:1000D0009385C5396308B500232005001305450045
:1000E0006FF05FFF170500C0130505381301C1FF4E
:1000F000970500C093854537630EB500832605003C
:10010000130545002320A100E78006000325010018
:100110006FF01FFE1301410037150000130505881D
:1001200073104530372500001305858073100530A6
:10013000970000C0E78080106F00000037150000B6
:10014000130505FE0F500570E31C05FE67800000D7
:040000058000000077
:00000001FF
